{
  "contractName": "KycContract",
  "abi": [
    {
      "anonymous": false,
      "inputs": [
        {
          "indexed": true,
          "internalType": "address",
          "name": "previousOwner",
          "type": "address"
        },
        {
          "indexed": true,
          "internalType": "address",
          "name": "newOwner",
          "type": "address"
        }
      ],
      "name": "OwnershipTransferred",
      "type": "event"
    },
    {
      "inputs": [],
      "name": "owner",
      "outputs": [
        {
          "internalType": "address",
          "name": "",
          "type": "address"
        }
      ],
      "stateMutability": "view",
      "type": "function",
      "constant": true
    },
    {
      "inputs": [],
      "name": "renounceOwnership",
      "outputs": [],
      "stateMutability": "nonpayable",
      "type": "function"
    },
    {
      "inputs": [
        {
          "internalType": "address",
          "name": "newOwner",
          "type": "address"
        }
      ],
      "name": "transferOwnership",
      "outputs": [],
      "stateMutability": "nonpayable",
      "type": "function"
    },
    {
      "inputs": [
        {
          "internalType": "address",
          "name": "_addr",
          "type": "address"
        }
      ],
      "name": "setKycCompleted",
      "outputs": [],
      "stateMutability": "nonpayable",
      "type": "function"
    },
    {
      "inputs": [
        {
          "internalType": "address",
          "name": "_addr",
          "type": "address"
        }
      ],
      "name": "setKycRevoked",
      "outputs": [],
      "stateMutability": "nonpayable",
      "type": "function"
    },
    {
      "inputs": [
        {
          "internalType": "address",
          "name": "_addr",
          "type": "address"
        }
      ],
      "name": "kycCompleted",
      "outputs": [
        {
          "internalType": "bool",
          "name": "",
          "type": "bool"
        }
      ],
      "stateMutability": "view",
      "type": "function",
      "constant": true
    }
  ],
  "bytecode": "0x608060405234801561001057600080fd5b5061002d61002261003260201b60201c565b61003a60201b60201c565b6100fe565b600033905090565b60008060009054906101000a900473ffffffffffffffffffffffffffffffffffffffff169050816000806101000a81548173ffffffffffffffffffffffffffffffffffffffff021916908373ffffffffffffffffffffffffffffffffffffffff1602179055508173ffffffffffffffffffffffffffffffffffffffff168173ffffffffffffffffffffffffffffffffffffffff167f8be0079c531659141344cd1fd0a4f28419497f9722a3daafe3b4186f6b6457e060405160405180910390a35050565b61079f8061010d6000396000f3fe608060405234801561001057600080fd5b50600436106100625760003560e01c806370c9aedd14610067578063715018a6146100835780638da5cb5b1461008d578063dc3958cc146100ab578063df235fe4146100c7578063f2fde38b146100f7575b600080fd5b610081600480360381019061007c91906105a0565b610113565b005b61008b6101e9565b005b610095610271565b6040516100a2919061068d565b60405180910390f35b6100c560048036038101906100c091906105a0565b61029a565b005b6100e160048036038101906100dc91906105a0565b610371565b6040516100ee91906106a8565b60405180910390f35b610111600480360381019061010c91906105a0565b6103c7565b005b61011b6104bf565b73ffffffffffffffffffffffffffffffffffffffff16610139610271565b73ffffffffffffffffffffffffffffffffffffffff161461018f576040517f08c379a0000000000000000000000000000000000000000000000000000000008152600401610186906106e3565b60405180910390fd5b60018060008373ffffffffffffffffffffffffffffffffffffffff1673ffffffffffffffffffffffffffffffffffffffff16815260200190815260200160002060006101000a81548160ff02191690831515021790555050565b6101f16104bf565b73ffffffffffffffffffffffffffffffffffffffff1661020f610271565b73ffffffffffffffffffffffffffffffffffffffff1614610265576040517f08c379a000000000000000000000000000000000000000000000000000000000815260040161025c906106e3565b60405180910390fd5b61026f60006104c7565b565b60008060009054906101000a900473ffffffffffffffffffffffffffffffffffffffff16905090565b6102a26104bf565b73ffffffffffffffffffffffffffffffffffffffff166102c0610271565b73ffffffffffffffffffffffffffffffffffffffff1614610316576040517f08c379a000000000000000000000000000000000000000000000000000000000815260040161030d906106e3565b60405180910390fd5b6000600160008373ffffffffffffffffffffffffffffffffffffffff1673ffffffffffffffffffffffffffffffffffffffff16815260200190815260200160002060006101000a81548160ff02191690831515021790555050565b6000600160008373ffffffffffffffffffffffffffffffffffffffff1673ffffffffffffffffffffffffffffffffffffffff16815260200190815260200160002060009054906101000a900460ff169050919050565b6103cf6104bf565b73ffffffffffffffffffffffffffffffffffffffff166103ed610271565b73ffffffffffffffffffffffffffffffffffffffff1614610443576040517f08c379a000000000000000000000000000000000000000000000000000000000815260040161043a906106e3565b60405180910390fd5b600073ffffffffffffffffffffffffffffffffffffffff168173ffffffffffffffffffffffffffffffffffffffff1614156104b3576040517f08c379a00000000000000000000000000000000000000000000000000000000081526004016104aa906106c3565b60405180910390fd5b6104bc816104c7565b50565b600033905090565b60008060009054906101000a900473ffffffffffffffffffffffffffffffffffffffff169050816000806101000a81548173ffffffffffffffffffffffffffffffffffffffff021916908373ffffffffffffffffffffffffffffffffffffffff1602179055508173ffffffffffffffffffffffffffffffffffffffff168173ffffffffffffffffffffffffffffffffffffffff167f8be0079c531659141344cd1fd0a4f28419497f9722a3daafe3b4186f6b6457e060405160405180910390a35050565b60008135905061059a81610752565b92915050565b6000602082840312156105b257600080fd5b60006105c08482850161058b565b91505092915050565b6105d281610714565b82525050565b6105e181610726565b82525050565b60006105f4602683610703565b91507f4f776e61626c653a206e6577206f776e657220697320746865207a65726f206160008301527f64647265737300000000000000000000000000000000000000000000000000006020830152604082019050919050565b600061065a602083610703565b91507f4f776e61626c653a2063616c6c6572206973206e6f7420746865206f776e65726000830152602082019050919050565b60006020820190506106a260008301846105c9565b92915050565b60006020820190506106bd60008301846105d8565b92915050565b600060208201905081810360008301526106dc816105e7565b9050919050565b600060208201905081810360008301526106fc8161064d565b9050919050565b600082825260208201905092915050565b600061071f82610732565b9050919050565b60008115159050919050565b600073ffffffffffffffffffffffffffffffffffffffff82169050919050565b61075b81610714565b811461076657600080fd5b5056fea2646970667358221220a839748f28da14b37e2e3f6fa89cf14262d1e27c7d6e3b84cf87d7c04f0455ac64736f6c63430008000033",
  "immutableReferences": {},
  "source": "pragma solidity 0.8.0;\r\n\r\nimport \"@openzeppelin/contracts/access/Ownable.sol\";\r\n\r\ncontract KycContract is Ownable {\r\n    mapping(address => bool) allowed;\r\n\r\n    function setKycCompleted(address _addr) public onlyOwner {\r\n        allowed[_addr] = true;\r\n    }\r\n\r\n    function setKycRevoked(address _addr) public onlyOwner {\r\n        allowed[_addr] = false;\r\n    }\r\n\r\n    function kycCompleted(address _addr) public view returns(bool) {\r\n        return allowed[_addr];\r\n    }\r\n}",
  "sourcePath": "C:/dev/solidity/tokenisation/contracts/KycContract.sol",
  "compiler": {
    "name": "solc",
    "version": "0.8.0+commit.c7dfd78e.Emscripten.clang"
  },
  "schemaVersion": "3.4.1",
  "updatedAt": "2021-07-27T06:33:37.736Z",
  "networkType": "ethereum",
  "devdoc": {
    "kind": "dev",
    "methods": {
      "owner()": {
        "details": "Returns the address of the current owner."
      },
      "renounceOwnership()": {
        "details": "Leaves the contract without owner. It will not be possible to call `onlyOwner` functions anymore. Can only be called by the current owner. NOTE: Renouncing ownership will leave the contract without an owner, thereby removing any functionality that is only available to the owner."
      },
      "transferOwnership(address)": {
        "details": "Transfers ownership of the contract to a new account (`newOwner`). Can only be called by the current owner."
      }
    },
    "version": 1
  },
  "userdoc": {
    "kind": "user",
    "methods": {},
    "version": 1
  }
}